{
  "contractName": "RequestPrice",
  "abi": [
    {
      "inputs": [],
      "stateMutability": "nonpayable",
      "type": "constructor"
    },
    {
      "anonymous": false,
      "inputs": [
        {
          "indexed": true,
          "internalType": "bytes32",
          "name": "id",
          "type": "bytes32"
        }
      ],
      "name": "ChainlinkCancelled",
      "type": "event"
    },
    {
      "anonymous": false,
      "inputs": [
        {
          "indexed": true,
          "internalType": "bytes32",
          "name": "id",
          "type": "bytes32"
        }
      ],
      "name": "ChainlinkFulfilled",
      "type": "event"
    },
    {
      "anonymous": false,
      "inputs": [
        {
          "indexed": true,
          "internalType": "bytes32",
          "name": "id",
          "type": "bytes32"
        }
      ],
      "name": "ChainlinkRequested",
      "type": "event"
    },
    {
      "inputs": [],
      "name": "price",
      "outputs": [
        {
          "internalType": "uint256",
          "name": "",
          "type": "uint256"
        }
      ],
      "stateMutability": "view",
      "type": "function"
    },
    {
      "inputs": [],
      "name": "requestPriceData",
      "outputs": [
        {
          "internalType": "bytes32",
          "name": "requestId",
          "type": "bytes32"
        }
      ],
      "stateMutability": "nonpayable",
      "type": "function"
    },
    {
      "inputs": [
        {
          "internalType": "bytes32",
          "name": "_requestId",
          "type": "bytes32"
        },
        {
          "internalType": "uint256",
          "name": "_price",
          "type": "uint256"
        }
      ],
      "name": "fulfill",
      "outputs": [],
      "stateMutability": "nonpayable",
      "type": "function"
    }
  ],
  "bytecode": "0x608060405260016004553480156200001657600080fd5b5062000027620000b860201b60201c565b73c57b33452b4f7bb189bb5afae9cc4aba1f7a4fd8600760006101000a81548173ffffffffffffffffffffffffffffffffffffffff021916908373ffffffffffffffffffffffffffffffffffffffff1602179055507f643532373064316333313139343164306230386265616432316665613737343760088190555067016345785d8a000060098190555062000230565b6200014e73c89bd4e1632d3a43cb03aaad5262cbe4038bc57173ffffffffffffffffffffffffffffffffffffffff166338cc48316040518163ffffffff1660e01b8152600401602060405180830381865afa1580156200011c573d6000803e3d6000fd5b505050506040513d601f19601f82011682018060405250810190620001429190620001fe565b6200015060201b60201c565b565b80600260006101000a81548173ffffffffffffffffffffffffffffffffffffffff021916908373ffffffffffffffffffffffffffffffffffffffff16021790555050565b600080fd5b600073ffffffffffffffffffffffffffffffffffffffff82169050919050565b6000620001c68262000199565b9050919050565b620001d881620001b9565b8114620001e457600080fd5b50565b600081519050620001f881620001cd565b92915050565b60006020828403121562000217576200021662000194565b5b60006200022784828501620001e7565b91505092915050565b61143c80620002406000396000f3fe608060405234801561001057600080fd5b50600436106100415760003560e01c80634357855e14610046578063a035b1fe14610062578063d732286214610080575b600080fd5b610060600480360381019061005b9190610bdd565b61009e565b005b61006a6101af565b6040516100779190610c2c565b60405180910390f35b6100886101b5565b6040516100959190610c56565b60405180910390f35b816005600082815260200190815260200160002060009054906101000a900473ffffffffffffffffffffffffffffffffffffffff1673ffffffffffffffffffffffffffffffffffffffff163373ffffffffffffffffffffffffffffffffffffffff1614610140576040517f08c379a000000000000000000000000000000000000000000000000000000000815260040161013790610cf4565b60405180910390fd5b6005600082815260200190815260200160002060006101000a81549073ffffffffffffffffffffffffffffffffffffffff0219169055807f7cc135e0cebb02c3480ae5d74d377283180a2601f8f644edf7987b009316c63a60405160405180910390a281600681905550505050565b60065481565b6000806101cc60085430634357855e60e01b6102e4565b90506102306040518060400160405280600381526020017f67657400000000000000000000000000000000000000000000000000000000008152506040518060800160405280604d81526020016113ba604d9139836103159092919063ffffffff16565b6102af6040518060400160405280600481526020017f70617468000000000000000000000000000000000000000000000000000000008152506040518060400160405280600981526020017f5241572e50524943450000000000000000000000000000000000000000000000815250836103159092919063ffffffff16565b6102de600760009054906101000a900473ffffffffffffffffffffffffffffffffffffffff1682600954610348565b91505090565b6102ec610ae5565b6102f4610ae5565b61030b85858584610414909392919063ffffffff16565b9150509392505050565b61032c8284608001516104c490919063ffffffff16565b6103438184608001516104c490919063ffffffff16565b505050565b600080600454905060018161035d9190610d43565b6004819055506000634042994660e01b60008087600001513089604001518760018c608001516000015160405160240161039e989796959493929190610eae565b604051602081830303815290604052907bffffffffffffffffffffffffffffffffffffffffffffffffffffffff19166020820180517bffffffffffffffffffffffffffffffffffffffffffffffffffffffff83818316178352505050509050610409868386846104e9565b925050509392505050565b61041c610ae5565b61042c856080015161010061067e565b508385600001818152505082856020019073ffffffffffffffffffffffffffffffffffffffff16908173ffffffffffffffffffffffffffffffffffffffff16815250508185604001907bffffffffffffffffffffffffffffffffffffffffffffffffffffffff191690817bffffffffffffffffffffffffffffffffffffffffffffffffffffffff191681525050849050949350505050565b6104d182600383516106e8565b6104e4818361086d90919063ffffffff16565b505050565b600030846040516020016104fe929190610fec565b604051602081830303815290604052805190602001209050846005600083815260200190815260200160002060006101000a81548173ffffffffffffffffffffffffffffffffffffffff021916908373ffffffffffffffffffffffffffffffffffffffff160217905550807fb5e6e01e79f91267dc17b4e6314d5d4d03593d2ceee0fbb452b750bd70ea5af960405160405180910390a2600260009054906101000a900473ffffffffffffffffffffffffffffffffffffffff1673ffffffffffffffffffffffffffffffffffffffff16634000aea08685856040518463ffffffff1660e01b81526004016105f493929190611018565b6020604051808303816000875af1158015610613573d6000803e3d6000fd5b505050506040513d601f19601f82011682018060405250810190610637919061108e565b610676576040517f08c379a000000000000000000000000000000000000000000000000000000000815260040161066d9061112d565b60405180910390fd5b949350505050565b610686610b52565b6000602083610695919061117c565b146106c1576020826106a7919061117c565b60206106b391906111ad565b826106be9190610d43565b91505b81836020018181525050604051808452600081528281016020016040525082905092915050565b60178167ffffffffffffffff161161071f576107198160058460ff16901b60ff16178461088f90919063ffffffff16565b50610868565b60ff8167ffffffffffffffff16116107755761074e601860058460ff16901b178461088f90919063ffffffff16565b5061076f8167ffffffffffffffff166001856108af9092919063ffffffff16565b50610867565b61ffff8167ffffffffffffffff16116107cc576107a5601960058460ff16901b178461088f90919063ffffffff16565b506107c68167ffffffffffffffff166002856108af9092919063ffffffff16565b50610866565b63ffffffff8167ffffffffffffffff1611610825576107fe601a60058460ff16901b178461088f90919063ffffffff16565b5061081f8167ffffffffffffffff166004856108af9092919063ffffffff16565b50610865565b610842601b60058460ff16901b178461088f90919063ffffffff16565b506108638167ffffffffffffffff166008856108af9092919063ffffffff16565b505b5b5b5b505050565b610875610b52565b610887838460000151518485516108d1565b905092915050565b610897610b52565b6108a783846000015151846109c0565b905092915050565b6108b7610b52565b6108c8848560000151518585610a17565b90509392505050565b6108d9610b52565b82518211156108e757600080fd5b846020015182856108f89190610d43565b111561092d5761092c85600261091d886020015188876109189190610d43565b610aa5565b61092791906111e1565b610ac1565b5b60008086518051876020830101935080888701111561094c5787860182525b60208701925050505b60208410610993578051825260208261096e9190610d43565b915060208161097d9190610d43565b905060208461098c91906111ad565b9350610955565b60006001856020036101000a03905080198251168184511681811785525050508692505050949350505050565b6109c8610b52565b836020015183106109ee576109ed84600286602001516109e891906111e1565b610ac1565b5b8351805160208583010184815381861415610a0a576001820183525b5050508390509392505050565b610a1f610b52565b84602001518483610a309190610d43565b1115610a5857610a578560028685610a489190610d43565b610a5291906111e1565b610ac1565b5b6000600183610100610a6a919061136e565b610a7491906111ad565b90508551838682010185831982511617815281518588011115610a975784870182525b505085915050949350505050565b600081831115610ab757829050610abb565b8190505b92915050565b600082600001519050610ad4838361067e565b50610adf838261086d565b50505050565b6040518060a0016040528060008019168152602001600073ffffffffffffffffffffffffffffffffffffffff16815260200160007bffffffffffffffffffffffffffffffffffffffffffffffffffffffff1916815260200160008152602001610b4c610b52565b81525090565b604051806040016040528060608152602001600081525090565b600080fd5b6000819050919050565b610b8481610b71565b8114610b8f57600080fd5b50565b600081359050610ba181610b7b565b92915050565b6000819050919050565b610bba81610ba7565b8114610bc557600080fd5b50565b600081359050610bd781610bb1565b92915050565b60008060408385031215610bf457610bf3610b6c565b5b6000610c0285828601610b92565b9250506020610c1385828601610bc8565b9150509250929050565b610c2681610ba7565b82525050565b6000602082019050610c416000830184610c1d565b92915050565b610c5081610b71565b82525050565b6000602082019050610c6b6000830184610c47565b92915050565b600082825260208201905092915050565b7f536f75726365206d75737420626520746865206f7261636c65206f662074686560008201527f2072657175657374000000000000000000000000000000000000000000000000602082015250565b6000610cde602883610c71565b9150610ce982610c82565b604082019050919050565b60006020820190508181036000830152610d0d81610cd1565b9050919050565b7f4e487b7100000000000000000000000000000000000000000000000000000000600052601160045260246000fd5b6000610d4e82610ba7565b9150610d5983610ba7565b9250827fffffffffffffffffffffffffffffffffffffffffffffffffffffffffffffffff03821115610d8e57610d8d610d14565b5b828201905092915050565b600073ffffffffffffffffffffffffffffffffffffffff82169050919050565b6000610dc482610d99565b9050919050565b610dd481610db9565b82525050565b60007fffffffff0000000000000000000000000000000000000000000000000000000082169050919050565b610e0f81610dda565b82525050565b600081519050919050565b600082825260208201905092915050565b60005b83811015610e4f578082015181840152602081019050610e34565b83811115610e5e576000848401525b50505050565b6000601f19601f8301169050919050565b6000610e8082610e15565b610e8a8185610e20565b9350610e9a818560208601610e31565b610ea381610e64565b840191505092915050565b600061010082019050610ec4600083018b610dcb565b610ed1602083018a610c1d565b610ede6040830189610c47565b610eeb6060830188610dcb565b610ef86080830187610e06565b610f0560a0830186610c1d565b610f1260c0830185610c1d565b81810360e0830152610f248184610e75565b90509998505050505050505050565b6000819050919050565b6000610f58610f53610f4e84610d99565b610f33565b610d99565b9050919050565b6000610f6a82610f3d565b9050919050565b6000610f7c82610f5f565b9050919050565b60008160601b9050919050565b6000610f9b82610f83565b9050919050565b6000610fad82610f90565b9050919050565b610fc5610fc082610f71565b610fa2565b82525050565b6000819050919050565b610fe6610fe182610ba7565b610fcb565b82525050565b6000610ff88285610fb4565b6014820191506110088284610fd5565b6020820191508190509392505050565b600060608201905061102d6000830186610dcb565b61103a6020830185610c1d565b818103604083015261104c8184610e75565b9050949350505050565b60008115159050919050565b61106b81611056565b811461107657600080fd5b50565b60008151905061108881611062565b92915050565b6000602082840312156110a4576110a3610b6c565b5b60006110b284828501611079565b91505092915050565b7f756e61626c6520746f207472616e73666572416e6443616c6c20746f206f726160008201527f636c650000000000000000000000000000000000000000000000000000000000602082015250565b6000611117602383610c71565b9150611122826110bb565b604082019050919050565b600060208201905081810360008301526111468161110a565b9050919050565b7f4e487b7100000000000000000000000000000000000000000000000000000000600052601260045260246000fd5b600061118782610ba7565b915061119283610ba7565b9250826111a2576111a161114d565b5b828206905092915050565b60006111b882610ba7565b91506111c383610ba7565b9250828210156111d6576111d5610d14565b5b828203905092915050565b60006111ec82610ba7565b91506111f783610ba7565b9250817fffffffffffffffffffffffffffffffffffffffffffffffffffffffffffffffff04831182151516156112305761122f610d14565b5b828202905092915050565b60008160011c9050919050565b6000808291508390505b60018511156112925780860481111561126e5761126d610d14565b5b600185161561127d5780820291505b808102905061128b8561123b565b9450611252565b94509492505050565b6000826112ab5760019050611367565b816112b95760009050611367565b81600181146112cf57600281146112d957611308565b6001915050611367565b60ff8411156112eb576112ea610d14565b5b8360020a91508482111561130257611301610d14565b5b50611367565b5060208310610133831016604e8410600b841016171561133d5782820a90508381111561133857611337610d14565b5b611367565b61134a8484846001611248565b9250905081840481111561136157611360610d14565b5b81810290505b9392505050565b600061137982610ba7565b915061138483610ba7565b92506113b17fffffffffffffffffffffffffffffffffffffffffffffffffffffffffffffffff848461129b565b90509291505056fe68747470733a2f2f6d696e2d6170692e63727970746f636f6d706172652e636f6d2f646174612f67656e65726174654176673f6673796d3d425443267473796d3d55534426653d4b72616b656ea2646970667358221220ada0ec596d3e6c8518fca947355c1d44580c3b4c3886cce2d37132dcebb6d2e864736f6c634300080b0033",
  "immutableReferences": {},
  "source": "//SPDX-License-Identifier: UNLICENSED\npragma solidity >=0.6.0 <0.9.0;\n\nimport \"@chainlink/contracts/src/v0.8/ChainlinkClient.sol\";\n\ncontract RequestPrice is ChainlinkClient {\n    using Chainlink for Chainlink.Request;\n\n    uint256 public price;\n\n    address private oracle;\n    bytes32 private jobId;\n    uint256 private fee;\n\n    constructor() {\n        setPublicChainlinkToken();\n        oracle = 0xc57B33452b4F7BB189bB5AfaE9cc4aBa1f7a4FD8;\n        jobId = \"d5270d1c311941d0b08bead21fea7747\";\n        fee = 0.1 * 10 ** 18; \n    }\n\n    /**\n     * Create a Chainlink request to retrieve API response, find the target\n     * data.\n     */\n    function requestPriceData() public returns (bytes32 requestId)\n    {\n        Chainlink.Request memory request = buildChainlinkRequest(jobId, address(this), this.fulfill.selector);\n\n\n        // Set the URL to perform the GET request on\n        request.add(\"get\", \"https://min-api.cryptocompare.com/data/generateAvg?fsym=BTC&tsym=USD&e=Kraken\");\n\n        // Specify the path for retrieving the data\n        request.add(\"path\", \"RAW.PRICE\");\n        // Sends the request\n        return sendChainlinkRequestTo(oracle, request, fee);\n    }\n\n     /**\n     * Callback Function\n     */\n    function fulfill(bytes32 _requestId, uint256 _price) public recordChainlinkFulfillment(_requestId)\n    {\n        price = _price;\n    }\n}",
  "sourcePath": "/Users/michaelsands/code/block/chainlink/contracts/RequestPrice.sol",
  "compiler": {
    "name": "solc",
    "version": "0.8.11+commit.d7f03943.Emscripten.clang"
  },
  "schemaVersion": "3.4.4",
  "updatedAt": "2022-05-16T07:41:05.725Z",
  "devdoc": {
    "kind": "dev",
    "methods": {},
    "version": 1
  },
  "userdoc": {
    "kind": "user",
    "methods": {
      "fulfill(bytes32,uint256)": {
        "notice": "Callback Function"
      },
      "requestPriceData()": {
        "notice": "Create a Chainlink request to retrieve API response, find the target data."
      }
    },
    "version": 1
  }
}