{
  "contractName": "ApiCall",
  "abi": [
    {
      "constant": true,
      "inputs": [],
      "name": "api_return_value",
      "outputs": [
        {
          "name": "",
          "type": "uint256"
        }
      ],
      "payable": false,
      "stateMutability": "view",
      "type": "function"
    },
    {
      "inputs": [],
      "payable": false,
      "stateMutability": "nonpayable",
      "type": "constructor"
    },
    {
      "constant": false,
      "inputs": [
        {
          "name": "_myid",
          "type": "bytes32"
        },
        {
          "name": "_result",
          "type": "string"
        }
      ],
      "name": "__callback",
      "outputs": [],
      "payable": false,
      "stateMutability": "nonpayable",
      "type": "function"
    },
    {
      "constant": false,
      "inputs": [
        {
          "name": "_myid",
          "type": "bytes32"
        },
        {
          "name": "_result",
          "type": "string"
        },
        {
          "name": "_proof",
          "type": "bytes"
        }
      ],
      "name": "__callback",
      "outputs": [],
      "payable": false,
      "stateMutability": "nonpayable",
      "type": "function"
    },
    {
      "constant": false,
      "inputs": [
        {
          "name": "result",
          "type": "string"
        }
      ],
      "name": "__callback",
      "outputs": [],
      "payable": false,
      "stateMutability": "nonpayable",
      "type": "function"
    },
    {
      "constant": false,
      "inputs": [
        {
          "name": "result",
          "type": "string"
        }
      ],
      "name": "query",
      "outputs": [],
      "payable": true,
      "stateMutability": "payable",
      "type": "function"
    },
    {
      "constant": false,
      "inputs": [
        {
          "name": "_datasource",
          "type": "string"
        },
        {
          "name": "_gasLimit",
          "type": "uint256"
        }
      ],
      "name": "getOraclizePrice",
      "outputs": [
        {
          "name": "_dsprice",
          "type": "uint256"
        }
      ],
      "payable": true,
      "stateMutability": "payable",
      "type": "function"
    }
  ],
  "bytecode": "0x608060405234801561001057600080fd5b5073371830767789f74d715cfd79157fa2331c5a9c18600160006101000a81548173ffffffffffffffffffffffffffffffffffffffff021916908373ffffffffffffffffffffffffffffffffffffffff160217905550611d01806100756000396000f3fe608060405260043610610078576000357c0100000000000000000000000000000000000000000000000000000000900463ffffffff16806327dc297e1461007d5780632ae31a1f1461014f57806338bbfa5014610228578063795764d1146103915780637c261929146103bc578063e1d8d66a14610477575b600080fd5b34801561008957600080fd5b5061014d600480360360408110156100a057600080fd5b8101908080359060200190929190803590602001906401000000008111156100c757600080fd5b8201836020820111156100d957600080fd5b803590602001918460018302840111640100000000831117156100fb57600080fd5b91908080601f016020809104026020016040519081016040528093929190818152602001838380828437600081840152601f19601f82011690508083019250505050505050919291929050505061053f565b005b6102126004803603604081101561016557600080fd5b810190808035906020019064010000000081111561018257600080fd5b82018360208201111561019457600080fd5b803590602001918460018302840111640100000000831117156101b657600080fd5b91908080601f016020809104026020016040519081016040528093929190818152602001838380828437600081840152601f19601f82011690508083019250505050505050919291929080359060200190929190505050610582565b6040518082815260200191505060405180910390f35b34801561023457600080fd5b5061038f6004803603606081101561024b57600080fd5b81019080803590602001909291908035906020019064010000000081111561027257600080fd5b82018360208201111561028457600080fd5b803590602001918460018302840111640100000000831117156102a657600080fd5b91908080601f016020809104026020016040519081016040528093929190818152602001838380828437600081840152601f19601f8201169050808301925050505050505091929192908035906020019064010000000081111561030957600080fd5b82018360208201111561031b57600080fd5b8035906020019184600183028401116401000000008311171561033d57600080fd5b91908080601f016020809104026020016040519081016040528093929190818152602001838380828437600081840152601f19601f8201169050808301925050505050505091929192905050506105ce565b005b34801561039d57600080fd5b506103a66105f2565b6040518082815260200191505060405180910390f35b610475600480360360208110156103d257600080fd5b81019080803590602001906401000000008111156103ef57600080fd5b82018360208201111561040157600080fd5b8035906020019184600183028401116401000000008311171561042357600080fd5b91908080601f016020809104026020016040519081016040528093929190818152602001838380828437600081840152601f19601f8201169050808301925050505050505091929192905050506105f8565b005b34801561048357600080fd5b5061053d6004803603602081101561049a57600080fd5b81019080803590602001906401000000008111156104b757600080fd5b8201836020820111156104c957600080fd5b803590602001918460018302840111640100000000831117156104eb57600080fd5b91908080601f016020809104026020016040519081016040528093929190818152602001838380828437600081840152601f19601f820116905080830192505050505050509192919290505050610697565b005b61057e828260006040519080825280601f01601f1916602001820160405280156105785781602001600182028038833980820191505090505b506105ce565b5050565b60006105c66040805190810160405280600381526020017f55524c0000000000000000000000000000000000000000000000000000000000815250620138806106ec565b905092915050565b60006001026003600080600102815260200190815260200160002081905550505050565b60055481565b6106936040805190810160405280600c81526020017f576f6c6672616d416c7068610000000000000000000000000000000000000000815250606060405190810160405280602681526020017f7072696365206f66206761736f6c696e6520696e2044616c6c6173202a20312081526020017f67616c6c6f6e0000000000000000000000000000000000000000000000000000815250610adc565b5050565b61069f611095565b73ffffffffffffffffffffffffffffffffffffffff163373ffffffffffffffffffffffffffffffffffffffff161415156106d857600080fd5b6106e3816002611408565b60058190555050565b60008073ffffffffffffffffffffffffffffffffffffffff16600160009054906101000a900473ffffffffffffffffffffffffffffffffffffffff1673ffffffffffffffffffffffffffffffffffffffff16148061077457506000610772600160009054906101000a900473ffffffffffffffffffffffffffffffffffffffff166116a3565b145b156107855761078360006116ae565b505b600160009054906101000a900473ffffffffffffffffffffffffffffffffffffffff1673ffffffffffffffffffffffffffffffffffffffff166338cc48316040518163ffffffff167c0100000000000000000000000000000000000000000000000000000000028152600401602060405180830381600087803b15801561080b57600080fd5b505af115801561081f573d6000803e3d6000fd5b505050506040513d602081101561083557600080fd5b810190808051906020019092919050505073ffffffffffffffffffffffffffffffffffffffff166000809054906101000a900473ffffffffffffffffffffffffffffffffffffffff1673ffffffffffffffffffffffffffffffffffffffff1614151561099c57600160009054906101000a900473ffffffffffffffffffffffffffffffffffffffff1673ffffffffffffffffffffffffffffffffffffffff166338cc48316040518163ffffffff167c0100000000000000000000000000000000000000000000000000000000028152600401602060405180830381600087803b15801561092157600080fd5b505af1158015610935573d6000803e3d6000fd5b505050506040513d602081101561094b57600080fd5b81019080805190602001909291905050506000806101000a81548173ffffffffffffffffffffffffffffffffffffffff021916908373ffffffffffffffffffffffffffffffffffffffff1602179055505b6000809054906101000a900473ffffffffffffffffffffffffffffffffffffffff1673ffffffffffffffffffffffffffffffffffffffff16632ef3accc84846040518363ffffffff167c01000000000000000000000000000000000000000000000000000000000281526004018080602001838152602001828103825284818151815260200191508051906020019080838360005b83811015610a4c578082015181840152602081019050610a31565b50505050905090810190601f168015610a795780820380516001836020036101000a031916815260200191505b509350505050602060405180830381600087803b158015610a9957600080fd5b505af1158015610aad573d6000803e3d6000fd5b505050506040513d6020811015610ac357600080fd5b8101908080519060200190929190505050905092915050565b60008073ffffffffffffffffffffffffffffffffffffffff16600160009054906101000a900473ffffffffffffffffffffffffffffffffffffffff1673ffffffffffffffffffffffffffffffffffffffff161480610b6457506000610b62600160009054906101000a900473ffffffffffffffffffffffffffffffffffffffff166116a3565b145b15610b7557610b7360006116ae565b505b600160009054906101000a900473ffffffffffffffffffffffffffffffffffffffff1673ffffffffffffffffffffffffffffffffffffffff166338cc48316040518163ffffffff167c0100000000000000000000000000000000000000000000000000000000028152600401602060405180830381600087803b158015610bfb57600080fd5b505af1158015610c0f573d6000803e3d6000fd5b505050506040513d6020811015610c2557600080fd5b810190808051906020019092919050505073ffffffffffffffffffffffffffffffffffffffff166000809054906101000a900473ffffffffffffffffffffffffffffffffffffffff1673ffffffffffffffffffffffffffffffffffffffff16141515610d8c57600160009054906101000a900473ffffffffffffffffffffffffffffffffffffffff1673ffffffffffffffffffffffffffffffffffffffff166338cc48316040518163ffffffff167c0100000000000000000000000000000000000000000000000000000000028152600401602060405180830381600087803b158015610d1157600080fd5b505af1158015610d25573d6000803e3d6000fd5b505050506040513d6020811015610d3b57600080fd5b81019080805190602001909291905050506000806101000a81548173ffffffffffffffffffffffffffffffffffffffff021916908373ffffffffffffffffffffffffffffffffffffffff1602179055505b60008060009054906101000a900473ffffffffffffffffffffffffffffffffffffffff1673ffffffffffffffffffffffffffffffffffffffff1663524f3889856040518263ffffffff167c01000000000000000000000000000000000000000000000000000000000281526004018080602001828103825283818151815260200191508051906020019080838360005b83811015610e37578082015181840152602081019050610e1c565b50505050905090810190601f168015610e645780820380516001836020036101000a031916815260200191505b5092505050602060405180830381600087803b158015610e8357600080fd5b505af1158015610e97573d6000803e3d6000fd5b505050506040513d6020811015610ead57600080fd5b8101908080519060200190929190505050905062030d403a02670de0b6b3a764000001811115610ee457600060010291505061108f565b6000809054906101000a900473ffffffffffffffffffffffffffffffffffffffff1673ffffffffffffffffffffffffffffffffffffffff1663adf59f9982600087876040518563ffffffff167c0100000000000000000000000000000000000000000000000000000000028152600401808481526020018060200180602001838103835285818151815260200191508051906020019080838360005b83811015610f9b578082015181840152602081019050610f80565b50505050905090810190601f168015610fc85780820380516001836020036101000a031916815260200191505b50838103825284818151815260200191508051906020019080838360005b83811015611001578082015181840152602081019050610fe6565b50505050905090810190601f16801561102e5780820380516001836020036101000a031916815260200191505b50955050505050506020604051808303818588803b15801561104f57600080fd5b505af1158015611063573d6000803e3d6000fd5b50505050506040513d602081101561107a57600080fd5b81019080805190602001909291905050509150505b92915050565b60008073ffffffffffffffffffffffffffffffffffffffff16600160009054906101000a900473ffffffffffffffffffffffffffffffffffffffff1673ffffffffffffffffffffffffffffffffffffffff16148061111d5750600061111b600160009054906101000a900473ffffffffffffffffffffffffffffffffffffffff166116a3565b145b1561112e5761112c60006116ae565b505b600160009054906101000a900473ffffffffffffffffffffffffffffffffffffffff1673ffffffffffffffffffffffffffffffffffffffff166338cc48316040518163ffffffff167c0100000000000000000000000000000000000000000000000000000000028152600401602060405180830381600087803b1580156111b457600080fd5b505af11580156111c8573d6000803e3d6000fd5b505050506040513d60208110156111de57600080fd5b810190808051906020019092919050505073ffffffffffffffffffffffffffffffffffffffff166000809054906101000a900473ffffffffffffffffffffffffffffffffffffffff1673ffffffffffffffffffffffffffffffffffffffff1614151561134557600160009054906101000a900473ffffffffffffffffffffffffffffffffffffffff1673ffffffffffffffffffffffffffffffffffffffff166338cc48316040518163ffffffff167c0100000000000000000000000000000000000000000000000000000000028152600401602060405180830381600087803b1580156112ca57600080fd5b505af11580156112de573d6000803e3d6000fd5b505050506040513d60208110156112f457600080fd5b81019080805190602001909291905050506000806101000a81548173ffffffffffffffffffffffffffffffffffffffff021916908373ffffffffffffffffffffffffffffffffffffffff1602179055505b6000809054906101000a900473ffffffffffffffffffffffffffffffffffffffff1673ffffffffffffffffffffffffffffffffffffffff1663c281d19e6040518163ffffffff167c010000000000000000000000000000000000000000000000000000000002815260040160206040518083038186803b1580156113c857600080fd5b505afa1580156113dc573d6000803e3d6000fd5b505050506040513d60208110156113f257600080fd5b8101908080519060200190929190505050905090565b600060608390506000809050600080905060008090505b8351811015611684576030848281518110151561143857fe5b9060200101517f010000000000000000000000000000000000000000000000000000000000000090047f0100000000000000000000000000000000000000000000000000000000000000027f0100000000000000000000000000000000000000000000000000000000000000900460ff16101580156115365750603984828151811015156114c257fe5b9060200101517f010000000000000000000000000000000000000000000000000000000000000090047f0100000000000000000000000000000000000000000000000000000000000000027f0100000000000000000000000000000000000000000000000000000000000000900460ff1611155b156115ea57811561155957600086141561154f57611684565b8580600190039650505b600a830292506030848281518110151561156f57fe5b9060200101517f010000000000000000000000000000000000000000000000000000000000000090047f0100000000000000000000000000000000000000000000000000000000000000027f0100000000000000000000000000000000000000000000000000000000000000900460ff160383019250611677565b602e84828151811015156115fa57fe5b9060200101517f010000000000000000000000000000000000000000000000000000000000000090047f0100000000000000000000000000000000000000000000000000000000000000027f0100000000000000000000000000000000000000000000000000000000000000900460ff16141561167657600191505b5b808060010191505061141f565b5060008511156116975784600a0a820291505b81935050505092915050565b6000813b9050919050565b60006116b86116bf565b9050919050565b6000806116df731d3b2638a7cc9f2cb3d298a3da7a90b67e5506ed6116a3565b111561178157731d3b2638a7cc9f2cb3d298a3da7a90b67e5506ed600160006101000a81548173ffffffffffffffffffffffffffffffffffffffff021916908373ffffffffffffffffffffffffffffffffffffffff1602179055506117786040805190810160405280600b81526020017f6574685f6d61696e6e6574000000000000000000000000000000000000000000815250611c16565b60019050611c13565b60006117a073c03a2615d5efaf5f49f60b7bb6583eaec212fdf16116a3565b11156118425773c03a2615d5efaf5f49f60b7bb6583eaec212fdf1600160006101000a81548173ffffffffffffffffffffffffffffffffffffffff021916908373ffffffffffffffffffffffffffffffffffffffff1602179055506118396040805190810160405280600c81526020017f6574685f726f707374656e330000000000000000000000000000000000000000815250611c16565b60019050611c13565b600061186173b7a07bcf2ba2f2703b24c0691b5278999c59ac7e6116a3565b11156119035773b7a07bcf2ba2f2703b24c0691b5278999c59ac7e600160006101000a81548173ffffffffffffffffffffffffffffffffffffffff021916908373ffffffffffffffffffffffffffffffffffffffff1602179055506118fa6040805190810160405280600981526020017f6574685f6b6f76616e0000000000000000000000000000000000000000000000815250611c16565b60019050611c13565b600061192273146500cfd35b22e4a392fe0adc06de1a1368ed486116a3565b11156119c45773146500cfd35b22e4a392fe0adc06de1a1368ed48600160006101000a81548173ffffffffffffffffffffffffffffffffffffffff021916908373ffffffffffffffffffffffffffffffffffffffff1602179055506119bb6040805190810160405280600b81526020017f6574685f72696e6b656279000000000000000000000000000000000000000000815250611c16565b60019050611c13565b60006119e373a2998efd205fb9d4b4963afb70778d6354ad3a416116a3565b1115611a855773a2998efd205fb9d4b4963afb70778d6354ad3a41600160006101000a81548173ffffffffffffffffffffffffffffffffffffffff021916908373ffffffffffffffffffffffffffffffffffffffff160217905550611a7c6040805190810160405280600a81526020017f6574685f676f65726c6900000000000000000000000000000000000000000000815250611c16565b60019050611c13565b6000611aa4736f485c8bf6fc43ea212e93bbf8ce046c7f1cb4756116a3565b1115611b0857736f485c8bf6fc43ea212e93bbf8ce046c7f1cb475600160006101000a81548173ffffffffffffffffffffffffffffffffffffffff021916908373ffffffffffffffffffffffffffffffffffffffff16021790555060019050611c13565b6000611b277320e12a1f859b3feae5fb2a0a32c18f5a65555bbf6116a3565b1115611b8b577320e12a1f859b3feae5fb2a0a32c18f5a65555bbf600160006101000a81548173ffffffffffffffffffffffffffffffffffffffff021916908373ffffffffffffffffffffffffffffffffffffffff16021790555060019050611c13565b6000611baa7351efaf4c8b3c9afbd5ab9f4bbc82784ab6ef8faa6116a3565b1115611c0e577351efaf4c8b3c9afbd5ab9f4bbc82784ab6ef8faa600160006101000a81548173ffffffffffffffffffffffffffffffffffffffff021916908373ffffffffffffffffffffffffffffffffffffffff16021790555060019050611c13565b600090505b90565b8060029080519060200190611c2c929190611c30565b5050565b828054600181600116156101000203166002900490600052602060002090601f016020900481019282601f10611c7157805160ff1916838001178555611c9f565b82800160010185558215611c9f579182015b82811115611c9e578251825591602001919060010190611c83565b5b509050611cac9190611cb0565b5090565b611cd291905b80821115611cce576000816000905550600101611cb6565b5090565b9056fea165627a7a7230582095675114e88a3effcbdc244f8a2dba32b13b86042448f7dae6e327420a0982020029",
  "source": "pragma solidity >= 0.5.0 < 0.6.0; //\n\nimport \"./Oraclize.sol\"; //\n//import \"github.com/oraclize/ethereum-api/provableAPI.sol\";\n\ncontract ApiCall is usingOraclize {\n\n      uint public api_return_value;\n\n      constructor() public {\n\n            OAR = OraclizeAddrResolverI(0x371830767789f74d715CFD79157fa2331C5a9C18); \n      }\n\n      function __callback(string memory result) public {\n      if (msg.sender != oraclize_cbAddress()) revert();\n            api_return_value = parseInt(result, 2); \n      }\n\n      function query(string memory result) public payable {\n            //oraclize_query(\"URL\", html(\"https://www.wolframalpha.com/input?i2d=true&i=GOOGL+stock+price\").xpath(//*[@id=\"__next\"]/div/div[1]/main/div[2]/div/div[2]/section/section[2]/div/div/img/@alt); // helpers: html(\"\").xpath; xml(); json();\n            //oraclize_query(\"URL\", \"https://www.wolframalpha.com/input?i2d=true&i=GOOGL+stock+price\");\n            oraclize_query(\"WolframAlpha\", \"price of gasoline in Dallas * 1 gallon\");\n            //oraclize_query(\"WolframAlpha\", json(\"https://www.therocktrading.com/api/ticker/BTCUSD\".result.0.last));\n            //oraclize_query(\"URL\", \"xml(https://www.fueleconomy.gov/ws/rest/fuelprices).fuelPrices.diesel\"); \n      }\n\n      function getOraclizePrice(string memory _datasource, uint _gasLimit) public payable returns (uint _dsprice){\n          return oraclize_getPrice(\"URL\", 80000);\n     }\n\n}",
  "sourcePath": "/Users/michaelsands/code/block/contracts/ApiCall.sol",
  "compiler": {
    "name": "solc",
    "version": "0.5.0+commit.1d4f565a.Emscripten.clang"
  },
  "schemaVersion": "3.4.4",
  "updatedAt": "2022-02-16T05:57:08.353Z",
  "devdoc": {
    "methods": {
      "__callback(bytes32,string)": {
        "details": "The following `__callback` functions are just placeholders ideally     meant to be defined in child contract when proofs are used.     The function bodies simply silence compiler warnings."
      }
    }
  },
  "userdoc": {
    "methods": {}
  }
}