{
  "contractName": "ApiCall",
  "abi": [
    {
      "constant": true,
      "inputs": [],
      "name": "price",
      "outputs": [
        {
          "name": "",
          "type": "uint256"
        }
      ],
      "payable": false,
      "stateMutability": "view",
      "type": "function"
    },
    {
      "inputs": [],
      "payable": false,
      "stateMutability": "nonpayable",
      "type": "constructor"
    },
    {
      "constant": false,
      "inputs": [
        {
          "name": "myid",
          "type": "bytes32"
        },
        {
          "name": "result",
          "type": "string"
        }
      ],
      "name": "__callback",
      "outputs": [],
      "payable": false,
      "stateMutability": "nonpayable",
      "type": "function"
    },
    {
      "constant": false,
      "inputs": [
        {
          "name": "_myid",
          "type": "bytes32"
        },
        {
          "name": "_result",
          "type": "string"
        },
        {
          "name": "_proof",
          "type": "bytes"
        }
      ],
      "name": "__callback",
      "outputs": [],
      "payable": false,
      "stateMutability": "nonpayable",
      "type": "function"
    },
    {
      "constant": false,
      "inputs": [
        {
          "name": "myid",
          "type": "bytes32"
        },
        {
          "name": "result",
          "type": "string"
        }
      ],
      "name": "query",
      "outputs": [],
      "payable": true,
      "stateMutability": "payable",
      "type": "function"
    }
  ],
  "bytecode": "0x608060405234801561001057600080fd5b5073371830767789f74d715cfd79157fa2331c5a9c18600160006101000a81548173ffffffffffffffffffffffffffffffffffffffff021916908373ffffffffffffffffffffffffffffffffffffffff1602179055506116d7806100756000396000f3fe608060405260043610610062576000357c0100000000000000000000000000000000000000000000000000000000900463ffffffff16806327dc297e146100675780632eef3d651461013957806338bbfa50146101fe578063a035b1fe14610367575b600080fd5b34801561007357600080fd5b506101376004803603604081101561008a57600080fd5b8101908080359060200190929190803590602001906401000000008111156100b157600080fd5b8201836020820111156100c357600080fd5b803590602001918460018302840111640100000000831117156100e557600080fd5b91908080601f016020809104026020016040519081016040528093929190818152602001838380828437600081840152601f19601f820116905080830192505050505050509192919290505050610392565b005b6101fc6004803603604081101561014f57600080fd5b81019080803590602001909291908035906020019064010000000081111561017657600080fd5b82018360208201111561018857600080fd5b803590602001918460018302840111640100000000831117156101aa57600080fd5b91908080601f016020809104026020016040519081016040528093929190818152602001838380828437600081840152601f19601f8201169050808301925050505050505091929192905050506103e8565b005b34801561020a57600080fd5b506103656004803603606081101561022157600080fd5b81019080803590602001909291908035906020019064010000000081111561024857600080fd5b82018360208201111561025a57600080fd5b8035906020019184600183028401116401000000008311171561027c57600080fd5b91908080601f016020809104026020016040519081016040528093929190818152602001838380828437600081840152601f19601f820116905080830192505050505050509192919290803590602001906401000000008111156102df57600080fd5b8201836020820111156102f157600080fd5b8035906020019184600183028401116401000000008311171561031357600080fd5b91908080601f016020809104026020016040519081016040528093929190818152602001838380828437600081840152601f19601f820116905080830192505050505050509192919290505050610488565b005b34801561037357600080fd5b5061037c6104ac565b6040518082815260200191505060405180910390f35b61039a6104b2565b73ffffffffffffffffffffffffffffffffffffffff163373ffffffffffffffffffffffffffffffffffffffff161415156103d357600080fd5b6103de816002610825565b6005819055505050565b6104836040805190810160405280600381526020017f55524c0000000000000000000000000000000000000000000000000000000000815250606060405190810160405280603f81526020017f68747470733a2f2f7777772e776f6c6672616d616c7068612e636f6d2f696e7081526020017f75743f6932643d7472756526693d474f4f474c2b73746f636b2b707269636500815250610ac0565b505050565b60006001026003600080600102815260200190815260200160002081905550505050565b60055481565b60008073ffffffffffffffffffffffffffffffffffffffff16600160009054906101000a900473ffffffffffffffffffffffffffffffffffffffff1673ffffffffffffffffffffffffffffffffffffffff16148061053a57506000610538600160009054906101000a900473ffffffffffffffffffffffffffffffffffffffff16611079565b145b1561054b576105496000611084565b505b600160009054906101000a900473ffffffffffffffffffffffffffffffffffffffff1673ffffffffffffffffffffffffffffffffffffffff166338cc48316040518163ffffffff167c0100000000000000000000000000000000000000000000000000000000028152600401602060405180830381600087803b1580156105d157600080fd5b505af11580156105e5573d6000803e3d6000fd5b505050506040513d60208110156105fb57600080fd5b810190808051906020019092919050505073ffffffffffffffffffffffffffffffffffffffff166000809054906101000a900473ffffffffffffffffffffffffffffffffffffffff1673ffffffffffffffffffffffffffffffffffffffff1614151561076257600160009054906101000a900473ffffffffffffffffffffffffffffffffffffffff1673ffffffffffffffffffffffffffffffffffffffff166338cc48316040518163ffffffff167c0100000000000000000000000000000000000000000000000000000000028152600401602060405180830381600087803b1580156106e757600080fd5b505af11580156106fb573d6000803e3d6000fd5b505050506040513d602081101561071157600080fd5b81019080805190602001909291905050506000806101000a81548173ffffffffffffffffffffffffffffffffffffffff021916908373ffffffffffffffffffffffffffffffffffffffff1602179055505b6000809054906101000a900473ffffffffffffffffffffffffffffffffffffffff1673ffffffffffffffffffffffffffffffffffffffff1663c281d19e6040518163ffffffff167c010000000000000000000000000000000000000000000000000000000002815260040160206040518083038186803b1580156107e557600080fd5b505afa1580156107f9573d6000803e3d6000fd5b505050506040513d602081101561080f57600080fd5b8101908080519060200190929190505050905090565b600060608390506000809050600080905060008090505b8351811015610aa1576030848281518110151561085557fe5b9060200101517f010000000000000000000000000000000000000000000000000000000000000090047f0100000000000000000000000000000000000000000000000000000000000000027f0100000000000000000000000000000000000000000000000000000000000000900460ff16101580156109535750603984828151811015156108df57fe5b9060200101517f010000000000000000000000000000000000000000000000000000000000000090047f0100000000000000000000000000000000000000000000000000000000000000027f0100000000000000000000000000000000000000000000000000000000000000900460ff1611155b15610a0757811561097657600086141561096c57610aa1565b8580600190039650505b600a830292506030848281518110151561098c57fe5b9060200101517f010000000000000000000000000000000000000000000000000000000000000090047f0100000000000000000000000000000000000000000000000000000000000000027f0100000000000000000000000000000000000000000000000000000000000000900460ff160383019250610a94565b602e8482815181101515610a1757fe5b9060200101517f010000000000000000000000000000000000000000000000000000000000000090047f0100000000000000000000000000000000000000000000000000000000000000027f0100000000000000000000000000000000000000000000000000000000000000900460ff161415610a9357600191505b5b808060010191505061083c565b506000851115610ab45784600a0a820291505b81935050505092915050565b60008073ffffffffffffffffffffffffffffffffffffffff16600160009054906101000a900473ffffffffffffffffffffffffffffffffffffffff1673ffffffffffffffffffffffffffffffffffffffff161480610b4857506000610b46600160009054906101000a900473ffffffffffffffffffffffffffffffffffffffff16611079565b145b15610b5957610b576000611084565b505b600160009054906101000a900473ffffffffffffffffffffffffffffffffffffffff1673ffffffffffffffffffffffffffffffffffffffff166338cc48316040518163ffffffff167c0100000000000000000000000000000000000000000000000000000000028152600401602060405180830381600087803b158015610bdf57600080fd5b505af1158015610bf3573d6000803e3d6000fd5b505050506040513d6020811015610c0957600080fd5b810190808051906020019092919050505073ffffffffffffffffffffffffffffffffffffffff166000809054906101000a900473ffffffffffffffffffffffffffffffffffffffff1673ffffffffffffffffffffffffffffffffffffffff16141515610d7057600160009054906101000a900473ffffffffffffffffffffffffffffffffffffffff1673ffffffffffffffffffffffffffffffffffffffff166338cc48316040518163ffffffff167c0100000000000000000000000000000000000000000000000000000000028152600401602060405180830381600087803b158015610cf557600080fd5b505af1158015610d09573d6000803e3d6000fd5b505050506040513d6020811015610d1f57600080fd5b81019080805190602001909291905050506000806101000a81548173ffffffffffffffffffffffffffffffffffffffff021916908373ffffffffffffffffffffffffffffffffffffffff1602179055505b60008060009054906101000a900473ffffffffffffffffffffffffffffffffffffffff1673ffffffffffffffffffffffffffffffffffffffff1663524f3889856040518263ffffffff167c01000000000000000000000000000000000000000000000000000000000281526004018080602001828103825283818151815260200191508051906020019080838360005b83811015610e1b578082015181840152602081019050610e00565b50505050905090810190601f168015610e485780820380516001836020036101000a031916815260200191505b5092505050602060405180830381600087803b158015610e6757600080fd5b505af1158015610e7b573d6000803e3d6000fd5b505050506040513d6020811015610e9157600080fd5b8101908080519060200190929190505050905062030d403a02670de0b6b3a764000001811115610ec8576000600102915050611073565b6000809054906101000a900473ffffffffffffffffffffffffffffffffffffffff1673ffffffffffffffffffffffffffffffffffffffff1663adf59f9982600087876040518563ffffffff167c0100000000000000000000000000000000000000000000000000000000028152600401808481526020018060200180602001838103835285818151815260200191508051906020019080838360005b83811015610f7f578082015181840152602081019050610f64565b50505050905090810190601f168015610fac5780820380516001836020036101000a031916815260200191505b50838103825284818151815260200191508051906020019080838360005b83811015610fe5578082015181840152602081019050610fca565b50505050905090810190601f1680156110125780820380516001836020036101000a031916815260200191505b50955050505050506020604051808303818588803b15801561103357600080fd5b505af1158015611047573d6000803e3d6000fd5b50505050506040513d602081101561105e57600080fd5b81019080805190602001909291905050509150505b92915050565b6000813b9050919050565b600061108e611095565b9050919050565b6000806110b5731d3b2638a7cc9f2cb3d298a3da7a90b67e5506ed611079565b111561115757731d3b2638a7cc9f2cb3d298a3da7a90b67e5506ed600160006101000a81548173ffffffffffffffffffffffffffffffffffffffff021916908373ffffffffffffffffffffffffffffffffffffffff16021790555061114e6040805190810160405280600b81526020017f6574685f6d61696e6e65740000000000000000000000000000000000000000008152506115ec565b600190506115e9565b600061117673c03a2615d5efaf5f49f60b7bb6583eaec212fdf1611079565b11156112185773c03a2615d5efaf5f49f60b7bb6583eaec212fdf1600160006101000a81548173ffffffffffffffffffffffffffffffffffffffff021916908373ffffffffffffffffffffffffffffffffffffffff16021790555061120f6040805190810160405280600c81526020017f6574685f726f707374656e3300000000000000000000000000000000000000008152506115ec565b600190506115e9565b600061123773b7a07bcf2ba2f2703b24c0691b5278999c59ac7e611079565b11156112d95773b7a07bcf2ba2f2703b24c0691b5278999c59ac7e600160006101000a81548173ffffffffffffffffffffffffffffffffffffffff021916908373ffffffffffffffffffffffffffffffffffffffff1602179055506112d06040805190810160405280600981526020017f6574685f6b6f76616e00000000000000000000000000000000000000000000008152506115ec565b600190506115e9565b60006112f873146500cfd35b22e4a392fe0adc06de1a1368ed48611079565b111561139a5773146500cfd35b22e4a392fe0adc06de1a1368ed48600160006101000a81548173ffffffffffffffffffffffffffffffffffffffff021916908373ffffffffffffffffffffffffffffffffffffffff1602179055506113916040805190810160405280600b81526020017f6574685f72696e6b6562790000000000000000000000000000000000000000008152506115ec565b600190506115e9565b60006113b973a2998efd205fb9d4b4963afb70778d6354ad3a41611079565b111561145b5773a2998efd205fb9d4b4963afb70778d6354ad3a41600160006101000a81548173ffffffffffffffffffffffffffffffffffffffff021916908373ffffffffffffffffffffffffffffffffffffffff1602179055506114526040805190810160405280600a81526020017f6574685f676f65726c69000000000000000000000000000000000000000000008152506115ec565b600190506115e9565b600061147a736f485c8bf6fc43ea212e93bbf8ce046c7f1cb475611079565b11156114de57736f485c8bf6fc43ea212e93bbf8ce046c7f1cb475600160006101000a81548173ffffffffffffffffffffffffffffffffffffffff021916908373ffffffffffffffffffffffffffffffffffffffff160217905550600190506115e9565b60006114fd7320e12a1f859b3feae5fb2a0a32c18f5a65555bbf611079565b1115611561577320e12a1f859b3feae5fb2a0a32c18f5a65555bbf600160006101000a81548173ffffffffffffffffffffffffffffffffffffffff021916908373ffffffffffffffffffffffffffffffffffffffff160217905550600190506115e9565b60006115807351efaf4c8b3c9afbd5ab9f4bbc82784ab6ef8faa611079565b11156115e4577351efaf4c8b3c9afbd5ab9f4bbc82784ab6ef8faa600160006101000a81548173ffffffffffffffffffffffffffffffffffffffff021916908373ffffffffffffffffffffffffffffffffffffffff160217905550600190506115e9565b600090505b90565b8060029080519060200190611602929190611606565b5050565b828054600181600116156101000203166002900490600052602060002090601f016020900481019282601f1061164757805160ff1916838001178555611675565b82800160010185558215611675579182015b82811115611674578251825591602001919060010190611659565b5b5090506116829190611686565b5090565b6116a891905b808211156116a457600081600090555060010161168c565b5090565b9056fea165627a7a723058205f61133b4be94f5d23a98f01fb73125f56eee4e352d9f32cdc99d82d654962230029",
  "source": "pragma solidity >= 0.5.0 < 0.6.0; \n\nimport \"./Oraclize.sol\";\n\ncontract ApiCall is usingOraclize {\n\n      uint public price;\n\n      constructor() public {\n\n            OAR = OraclizeAddrResolverI(0x371830767789f74d715CFD79157fa2331C5a9C18); \n      }\n\n      function __callback(bytes32 myid, string memory result) public {\n      if (msg.sender != oraclize_cbAddress()) revert();\n            price = parseInt(result, 2); \n      }\n\n      function query(bytes32 myid, string memory result) public payable {\n            oraclize_query(\"URL\", \"https://www.wolframalpha.com/input?i2d=true&i=GOOGL+stock+price\");\n            //oraclize_query(\"WolframAlpha\", \"GOOGL stock price\");\n            //oraclize_query(\"URL\", \"xml(https://www.fueleconomy.gov/ws/rest/fuelprices).fuelPrices.diesel\");\n      }\n\n}",
  "sourcePath": "/Users/michaelsands/code/block/contracts/ApiCall.sol",
  "compiler": {
    "name": "solc",
    "version": "0.5.0+commit.1d4f565a.Emscripten.clang"
  },
  "schemaVersion": "3.4.4",
  "updatedAt": "2022-02-16T05:01:07.073Z",
  "devdoc": {
    "methods": {}
  },
  "userdoc": {
    "methods": {}
  }
}